:020000040800F2
:10000000A08500205D020008673C0008DD2600088E
:10001000653C0008B5100008453F000800000000DE
:100020000000000000000000000000009D0100082A
:100030008916000800000000F90100088D3D000845
:1000400077020008770200087702000877020008AC
:10005000770200087702000877020008770200089C
:10006000770200087702000877020008770200088C
:10007000770200087702000877020008770200087C
:10008000770200087702000877020008770200086C
:10009000770200087702000877020008770200085C
:1000A000770200087702000877020008770200084C
:1000B000770200087702000877020008770200083C
:1000C000770200087702000877020008770200082C
:1000D000770200087702000877020008770200081C
:1000E000770200087702000877020008770200080C
:1000F00077020008770200087702000877020008FC
:1001000077020008770200087702000877020008EB
:100110007702000877020008613E000877020008B5
:1001200077020008770200087702000877020008CB
:1001300077020008770200087702000877020008BB
:1001400077020008770200087702000877020008AB
:10015000770200087702000877020008770200089B
:10016000770200087702000877020008770200088B
:1001700077020008770200087702000800000000FC
:100180007702000877020008DFF80CD000F024FAAC
:1001900000480047554C0008A08500202C4B1968EA
:1001A0000868B0E8F04F80F30988BFF36F8F4FF015
:1001B000000080F3118870470000000008480068C4
:1001C000006880F308884FF0000080F3148862B65E
:1001D00061B6BFF34F8FBFF36F8F00DF00BF00BF6B
:1001E00008ED00E0DFF80C00016841F470010160E7
:1001F000704700BF88ED00E0EFF30980BFF36F8F19
:10020000134B1A681EF0100F08BF20ED108A20E96A
:10021000F04F106009B44FF0500080F31188BFF325
:100220004F8FBFF36F8F05F02DF94FF0000080F373
:10023000118809BC19680868B0E8F04F1EF0100F6B
:1002400008BFB0EC108A80F30988BFF36F8F704746
:1002500014000020EFF30580704700000648804737
:1002600006480047FEE7FEE7FEE7FEE7FEE7FEE79B
:10027000FEE7FEE7FEE7FEE7513E000889010008C1
:100280002DE9F05F0546002092469B4688460646CB
:10029000814640241BE0284641464746224600F05E
:1002A00053F953465A46C01A914110D31146184685
:1002B000224600F03AF92D1A67EB01084F46224614
:1002C0000120002100F031F917EB00094E41201EFA
:1002D000A4F10104DFDC484631462A464346BDE826
:1002E000F09F40EA01039B0703D009E008C9121FF1
:1002F00008C0042AFAD203E011F8013B00F8013BE0
:10030000521EF9D27047D2B201E000F8012B491E0B
:10031000FBD270470022F6E710B513460A460446A2
:100320001946FFF7F0FF204610BDF0B480EA010245
:10033000D40F4200B2EB410F02D2024608461146EA
:100340004A0042D0C30DDDB2C1F3C752AD1A202D11
:1003500035DAC1F3160141F4000204B15242C5F18D
:10036000200602FA06F12A411044B3EBD05F23D0F5
:10037000C4B1012DA0EBC35009DCF0BC4FF000422A
:1003800002EAC352DBB200F5000000F0F6B840000C
:1003900000F1807000EBC350A0F1807040EAD17092
:1003A000490009E0490841EAC071A0EBC35000F5DB
:1003B0000000400800EBC350F0BC00F0D5B861422B
:1003C000012202EB4101001BF6E7F0BC704781F00F
:1003D0000041AAE780F00040A7E780EA010210B5DB
:1003E00002F00043400022D04A001FD0010E01EB72
:1003F0001261C0F35600C2F3560240F4000042F40A
:100400000002A0FB022000047F39140400D0401C2D
:1004100050EA124001D44000491EC2B20C0604EB5F
:10042000D010401C4008802A02D003E0002010BDFC
:1004300020F00100002900DA0020184310BD30B47C
:1004400080EA010202F0004530F0004221F0004055
:1004500013D090B1C30DD40DC2F31601C0F3160032
:10046000E41A41F4000140F400027D34914201D3CA
:10047000641C00E04900002C02DA30BC0020704708
:100480004FF400000023914201D3891A034340082E
:100490004FEA4101F7D151B1914202D14FF00041F1
:1004A00005E002D24FF0010101E06FF0010103EB22
:1004B000C450284430BC00F057B8002801DBC0F11C
:1004C0000040002901DBC1F10041814201D8012037
:1004D000704700207047002801DBC0F10040002970
:1004E00001DBC1F10041814201D2012070470020AF
:1004F0007047002801DBC0F10040002901DBC1F199
:100500000041814201D90120704700207047002836
:1005100001DBC0F10040002901DBC1F10041814253
:1005200001D10120704700207047202A04DB203AC7
:1005300000FA02F1002070479140C2F1200320FA36
:1005400003F3194390407047202A04DB203A21FA34
:1005500002F00021704721FA02F3D040C2F12002DC
:1005600091400843194670470029A8BF7047401CB6
:10057000490008BF20F00100704710B4B0FA80FCB9
:1005800000FA0CF050EA010404BF10BC704749B1F6
:10059000CCF1200421FA04F411FA0CF118BF012166
:1005A00021430843A3EB0C01CB1D4FEA00614FEA46
:1005B000102042BF002010BC704700EBC350104415
:1005C0000029A4BF10BC7047401C490008BF20F0A0
:1005D000010010BC70470000064C074D06E0E068C3
:1005E00040F0010394E8070098471034AC42F6D37A
:1005F000FFF7CEFD305900085059000870B58C182F
:1006000010F8015B15F0070301D110F8013B2A1126
:1006100006D110F8012B03E010F8016B01F8016B13
:100620005B1EF9D12B0705D40023521E0DD401F80F
:10063000013BFAE710F8013BCB1A921C03E013F8D8
:10064000015B01F8015B521EF9D5A142D8D300200D
:1006500070BD00002DE9F04103880F88BB423FD1F7
:1006600047884E88B7423BD11688B34238D1568866
:10067000B74235D1466854684D6807FB03F800203F
:10068000B0EB980F1BD04FEA9800474230682968BA
:10069000FFF74BFE206070686968FFF746FE6060F8
:1006A000B068A968FFF741FEA060F068E968FFF74D
:1006B0003CFEE0601034103510360137E6D118F0FA
:1006C00003000BD0474200BF56F8040B55F8041B3B
:1006D000FFF72BFE44F8040B0137F5D1002000E0B2
:1006E000FD2040B2BDE8F081436042800180704748
:1006F0002DE9F04F93B0B0F802A0B0F800B0D345A8
:1007000040F05D810A88FD25934540F059814B8872
:100710009A4240F055814768BBF1000F00F03981E3
:100720004C686FF00300019700274FF07E585E463B
:10073000CDF820A000EB8B0920460494BBEB06000B
:1007400008D0B9002046FFF7E5FD00200130043451
:100750008742FBD104F1040A751EC4F800800FD053
:10076000A9EB87015046FFF7D5FD0120544600BF95
:10077000013004348642FBD10137002D2E46DDD1F5
:10078000019FDDF820A0BBF1000F00F002810420E2
:1007900007EB8A023C1DABF101080021CDF824A033
:1007A000CDF81CB000EB8A000290CAF100000B905B
:1007B0004FEA8A00129000BF594580F0058101FB85
:1007C0000AF0109104990597002593460392CDF8FD
:1007D000188057F8209001EB800107EB80004F460E
:1007E0000E910D9008E000BF1298DBF80070A8F1A0
:1007F000010835465844834638460021FFF75DFE20
:1008000040B938462946FFF774FE00283E4608D016
:1008100008E000BF87F0004628463146FFF75BFE40
:1008200000B92E46B8F1000FDED130460021FFF7A7
:100830006EFE002840F0C88029F000403146FFF7E6
:1008400066FEDDE9062140B91098C043401804D087
:10085000002000BF01308242FCD148460021FFF752
:1008600056FE099E002840F0AF800D994FF07E5053
:100870000F9408601098AAEB0001012908460C911A
:100880000BD00F9D012400BF28684946FFF7D7FD14
:10089000013445F8040BA642F6D10B9C0E9D00BF17
:1008A00028684946FFF7CBFD45F8040B0134F7D122
:1008B0000C98DDF81C804FF0000B01380A90DDE940
:1008C0000465DDE90F4100BF8B4505D10C9806EBAF
:1008D0008A0605EB80053CE00D98D5F8009001688C
:1008E0004846FFF77AFD01464846FFF770FD45F898
:1008F000040B0A98E0B1CDF84480DDF8248001278C
:100900004FF0000A54F80A104846FFF766FD01460A
:1009100055F80A00FFF75BFD013745F80A000AF1B8
:10092000040AB845EED15544DDF820A0DDF8448036
:100930000B9F0E9C54F8041B4846FFF74EFD0146E2
:100940003068FFF744FD46F8040B0137F2D1DDE9CA
:100950000F4105EB81050BF1010BB8F10108B3D193
:100960000298039ADDF81880059FDDF81CB001316C
:10097000044402440998A8F1010804370138099099
:100980007FF41AAF484600210025FFF7C0FD019F04
:10099000B0B10AFB0BF50024002645B138680021F0
:1009A000FFF7B5FD18B101360437AE42F6D3AE42BB
:1009B00008BF6FF00404204613B0BDE8F08FFD259A
:1009C00068B213B0BDE8F08FFB25F9E72DE9F04FD1
:1009D00091B047880B889F4240F0AF80068813880B
:1009E0009E4240F0AA804D8853889D4240F0A580E9
:1009F00052684FF0000949684FEA85080596049748
:100A0000039502924268A9EB97000191079027F0A5
:100A1000030002EB80000C920990B8080B90684329
:100A200001EB00102946009007F003000A904042B5
:100A3000069000BF029800EB890ADDE9000BCDF8B3
:100A4000209010900B980F91002847D0CDF838A037
:100A5000CDF834B0D946DDF81CA0DDF830B0002464
:100A60009BE8C100D9F80010DBF80C50FFF7B5FC8B
:100A700001462046FFF759FC59F808100446304655
:100A8000FFF7ABFC01462046FFF74FFC09EB0806D9
:100A90000446384656F80810FFF79FFC01462046EA
:100AA000FFF743FC46440446284656F80810FFF773
:100AB00094FC01462046FFF738FC044606EB08008C
:100AC0000BF1100B1AF1010A00EB0809C8D1109DB7
:100AD000DDE90896DDE90DBA03E000BF0C9E0024B5
:100AE0005D460A9868B1069F56F8040B2968FFF71F
:100AF00074FC01462046FFF718FC044645440137C4
:100B0000F2D110980F994AF8044B0BF1040B043002
:100B10000139109096D10498099901EB800109914F
:100B20000C9901EB800105980C91039901388944D7
:100B300005907FF47FAF002000E0FD2040B211B0AF
:100B4000BDE8F08F2DE9F04103880F88BB423FD10B
:100B500047884E88B7423BD11688B34238D1568871
:100B6000B74235D1466854684D6807FB03F800204A
:100B7000B0EB980F1BD04FEA9800474230682968C5
:100B8000FFF725FC206070686968FFF720FC606053
:100B9000B068A968FFF71BFCA060F068E968FFF780
:100BA00016FCE0601034103510360137E6D118F02D
:100BB00003000BD0474200BF56F8040B55F8041B46
:100BC000FFF705FC44F8040B0137F5D1002000E0E5
:100BD000FD2040B2BDE8F0812DE9F04F82B0B0F8C1
:100BE00000E04B889E454BD144880B889C4247D1FE
:100BF00000234E6804F0030B40684FEA0E184FEADA
:100C0000940AA3EB9401CBF1000901914FEA8E0104
:100C100032460096BAF1000F1CD0019F344600BF47
:100C20002546046801372C6044686C5005EB0104CC
:100C3000D0F808C044F801C00C44C26800F11000AC
:100C4000625004EB010202EB0104E9D105EB080755
:100C500003E000BF009A02EB8307BBF1000F07D04F
:100C60004D4600BF50F8042B01353A600F44F9D1CE
:100C70000436BEF1010E03F10103CBD1002000E0E8
:100C8000FD2040B202B0BDE8F08F00000122510209
:100C9000014800F07BBE00000004024000224FF437
:100CA0000071014800F072BE00040240012291026E
:100CB000014800F06BBE00000004024000224FF427
:100CC0008061014800F062BE0004024070B5054634
:100CD000FFF7E4FF922000F05DF90622654912203B
:100CE00000F03AF9FFF7D2FF624CA4F11C066078DD
:100CF0002178000200B2084300EE100AD6ED030A84
:100D0000B8EEC00A60EE200A95ED080A60EE800A8F
:100D1000C5ED000AE078A178000200B2084300EEB9
:100D2000900A96ED031AF8EEE00A60EE810A60EE92
:100D3000800AC5ED010A60792179000200B20843FA
:100D400000EE900A3081F8EEE00A60EE810A20EEB3
:100D5000800A85ED020AFFF7B1FF08222146002034
:100D600000F0FAF8FFF7A2FF20780F285AD1F078A8
:100D7000A1780028E0784FEA002000B240EA0100A4
:100D80002BD000EE100AD5ED090AB8EEC01A96ED88
:100D9000040A51EE000AC5ED030A607921790002C8
:100DA00000B2084300EE900A95ED0A1AF8EEE00A48
:100DB00010EE801A85ED041AE079A179000200B2E4
:100DC000084300EE900A308195ED0B1AF8EEE00A28
:100DD00010EE801A85ED051A24E000EE100AF8EEF8
:100DE000C00A96ED040A60EE800AC5ED030A607938
:100DF0002179000200B2084300EE900AF8EEE00A02
:100E000060EE800AC5ED040AE079A179000200B223
:100E1000084300EE900A3081F8EEE00A20EE800AE6
:100E200085ED050AFFF73AFFA22000F0B3F8022291
:100E30001049222000F090F8FFF728FF2078617811
:100E4000C00040EA51103081B0F5806F02DBA0F5A0
:100E500000603081B6F90800B4EE001A00EE100A06
:100E6000F8EEC00AB3EE070A00EE810A85ED070A24
:100E700070BD0000980000202DE9F0410D462B497F
:100E80002B4C2DED028B08600020A07003F0BAFD02
:100E9000A1780843A07003F049FEA1780843A07030
:100EA0001DB1244800F008F918E022489FED220AFD
:100EB00080ED090A9FED210A80ED0A0A9FED200AC4
:100EC00080ED0B0A9FED1F0A80ED0C0A9FED1E0AB4
:100ED00080ED080A9FED1D0A80ED060A154E0025DB
:100EE000543E9FED1B8ADFED1B8A4FF44878A6F134
:100EF000240700BFC5EBC50006EB80004146B0EEFD
:100F0000480A03F05DFD05EB450007EB8000B0EEFD
:100F1000680AC82104F0CEF86D1CEDB2032DE9D3A8
:100F2000A078BDEC028BBDE8F0810000C400002079
:100F30007C000020604200201F7AC3B89376E43B17
:100F40005B8E0C3B8DCE1F4187707B3F00002042A3
:100F5000000048426F12033A70B514460D4640F047
:100F6000800000F017F806E0552000F013F8641E2A
:100F700005F8010BE4B2002CF6D170BD10B50C469B
:100F800040F0800000F006F8552000F003F82070D3
:100F900010BD000001B582B04FF47A700090054892
:100FA000012301AA02A9006801F00AF99DF80400D2
:100FB0000EBD0000C400002010B50C46FFF7EAFF8C
:100FC0002046BDE81040FFF7E5BFB6EE000AD2EDBF
:100FD000020AF0EE401A92ED031A40EEE01A90ED8C
:100FE000002AD2ED012AD0ED013A22EEA03A41EEDC
:100FF000411A21EE822AD2ED001A01EEC13A22EE08
:10100000811A01EEA01A03EE232AD0ED020AF0EEB7
:10101000001A01EE202A62EE210AC1ED000A92EDCB
:10102000011AD2ED023A92ED002AD2ED030A61EEE6
:10103000232A90ED003A90ED014A42EE202A62EE1A
:10104000832AB0EE403A01EE413A00EEE03A63EE18
:10105000A00A42EE410A43EE042A90ED021A40EE45
:10106000812A62EEA10AC1ED010A92ED011AD2EDC8
:10107000032AD2ED020A92ED003A21EE222A60EE16
:10108000A22AD0ED003A01EE410A03EE602A43EEB7
:10109000012A90ED013A00EEE00A22EE232AD0ED7B
:1010A000020A02EE832A00EE202A22EE210A81EDB6
:1010B000020A7047FEE700002DE9F04F04462DEDCF
:1010C000048B89B000200090019000F04DFAEF4DA4
:1010D000DFF8BCB3DFF8BC9385ED050A02AE0DF175
:1010E00014084FF07E5A00BF00F03EFAD5ED050A15
:1010F00030EE600A10EE100A584514DD9FEDE60A46
:1011000084ED090A9FEDE50A84ED0A0A9FEDE40AE1
:1011100084ED0B0A9FEDE30A84ED0C0A9FEDE20AD1
:1011200084ED060A8CE19FEDE10A00F0E1F99FED04
:10113000E00A002784ED0C0A84ED090A84ED0A0A0E
:1011400084ED0B0AFBE000BFFFF7A8FD9220FFF73C
:1011500021FF062269461220FFF7FEFEFFF796FDEB
:101160009DF801009DF80010000200B2084300EE57
:10117000100AD5ED030AB8EEC00A20EE201A84ED5D
:10118000001A9DF803009DF80210000200B2084307
:1011900000EE100AF8EEC00A95ED030A60EE800A30
:1011A000C4ED010A9DF805009DF80410000200B28C
:1011B000084301EE900AF8EEE11A61EE801A21EE82
:1011C000010AC4ED021A00EEA00A01EEA10A03F022
:1011D00097FAB0EE408A94ED0C0A30EE080A84EDDE
:1011E0000C0AFFF76BFD082269460020FFF7B4FEEA
:1011F000FFF75CFD9DF800000F2840D19DF803002B
:101200009DF80210000200B2084300EE100AD5ED6E
:10121000040AB8EEC00A20EE200A84ED030A94ED19
:10122000091A31EE000A84ED090A9DF805009DF8BF
:101230000410000200B2084300EE100AB8EEC00A23
:1012400020EE200A84ED040A94ED0A1A31EE000A19
:1012500084ED0A0A9DF807009DF80610000200B20E
:10126000084300EE100AB8EEC00A20EE200A84ED12
:10127000050AD4ED0B0A30EE800A84ED0B0A002F2C
:101280007ED0B4EEC98AF1EE10FA01DDB0EE489AD4
:10129000B4EEE88AF1EE10FA01D2F0EE488A0020AE
:1012A0004FEA080104EB800292ED030A06EB80028C
:1012B000D2ED000AB4EEE00AF1EE10FA01DD82EDA3
:1012C000000A01EB8002D2ED000AB4EEE00AF1EE72
:1012D00010FA01D282ED000A401CC0B20328E1D30B
:1012E00039EE680A0A46002085ED060A4FEA090130
:1012F00006EB8003D3ED000A02EB800393ED001AA6
:1013000001EB8003401C70EEC10AC0B20328C3ED9C
:10131000000AEDD310EE100A504514DC65480A6847
:10132000824210DC4A6882420DDCD9F80810814202
:1013300009DC9FED610A00F0DBF87F1CBFB2E88892
:101340008742FFF401AFE988D4ED0C0A00EE101AD1
:101350002F460020B8EE400A80EE801A84ED0C1A69
:1013600000EE101A04EB8002401CF8EE400A92EDE9
:10137000091AC0B2032881EE200A82ED090A00E0B2
:101380006BE0EDD3FFF78AFCA220FFF703FE0222F9
:1013900069462220FFF7E0FDFFF778FC9DF800008A
:1013A0009DF80110C00040EA5110B0F5806F01DBDC
:1013B000A0F5006000EE100AB4EE001AF8EEC00AC4
:1013C000B3EE070A00EE810A84ED060AB888401CD5
:1013D000B880B86950453FF787AE94ED0C0ADFED51
:1013E000370A30EE600AB0EEC00A10EE100AB0F113
:1013F0007C5FF0DC2F48D9F800104A468142EADCD5
:1014000051688142E7DCD9F808108142E3DC94EDB1
:10141000090A2B48B0EEC00A10EE101A8142DADC3D
:1014200094ED0A0AB0EEC00A10EE101A8142D2DC26
:1014300094ED0B0AB0EEC00A10EE101A8142CADC1D
:1014400094ED0C0ADFED1F0A80EE801A84ED081A75
:1014500009B0BDEC048BBDE8F08FB0EE489AF0EE19
:10146000488A00204FEA080104EB800292ED030A4B
:1014700006EB800282ED000A01EB8002401CC0B244
:1014800082ED000A0328EFD32AE700007C00002049
:1014900000002041DC4100201F7AC3B89376E43B72
:1014A0005B8E0C3B8DCE1F41000020420AD7A33B30
:1014B000000000009A99193E6F12033ACDCC1C41EE
:1014C0000AD7233CC3F51C41074808B54068009083
:1014D000014606480269914202D2C168491CC160B6
:1014E0000099016108BD0000001000E0C800002064
:1014F0000A4948680A4AD2ED000A4A68121AF8EE08
:10150000601A01EE102AB8EE411A60EE211AB4EE0C
:10151000E11AF1EE10FAF0D370470000001000E07D
:10152000C800002000B50E492DED028B81B049683E
:1015300000910168009A511A00EE101A0949F8EE5C
:10154000400A91ED000A0260B8EE400A80EE808AFF
:10155000FFF7BAFF01B0B0EE480ABDEC028B00BD48
:10156000001000E0C800002010B500F043F80C485F
:101570009FED0C1A818890ED000A00EE901AC08849
:10158000B8EE400AF8EE600A00EE810A00EE900A1A
:101590009FED051AF8EE600A00EE810A10BD00000A
:1015A000F80000206F12833ABD3786350D490A686E
:1015B00042F080720A600C4900224A600B6843F0D6
:1015C00001030B6009494FF47A734843B0FBF3F30E
:1015D0000749C1E90003054BB0FBF3F0C1E9020282
:1015E00070470000FCED00E0001000E040420F00FA
:1015F000C80000202DE9F843214840680090FFF71B
:1016000063FF204F0024009EF8684FF0FF3125460D
:10161000E0FB0165C7E90E65D7F800802346424626
:1016200030462946FEF72CFEA0FB083CC7E9060120
:1016300001FB08C100FB0411F61A65EB0105C7E9BF
:10164000086507F130080023C8F80000D7F80490B7
:1016500030464A462946FEF713FE80B2A8F8040039
:1016600000FB09F0301A65EB0405C7E90A052946B5
:101670000023BA68FEF704FEA8F80600BDE8F88368
:10168000001000E0C80000207047B6EE000AD2ED5E
:10169000020AF0EE401A92ED031A40EEE01A90EDC5
:1016A000002AD2ED012AD0ED013A22EEA03A41EE15
:1016B000411A21EE822AD2ED001A01EE813A22EE81
:1016C000811A01EEE01A03EE232AD0ED020AF0EEB1
:1016D000001A01EE202A62EE210AC1ED000A92ED05
:1016E000011AD2ED023A92ED002AD2ED030A61EE20
:1016F000232A90ED003A90ED014A42EE602A62EE14
:10170000832AB0EE403A01EE413A00EEE03A63EE51
:10171000A00A42EE010A43EE042A90ED021A40EEBE
:10172000812A62EEA10AC1ED010A92ED011AD2ED01
:10173000032AD2ED020A92ED003A21EE222A60EE4F
:10174000A22AD0ED003A01EE410A03EE202A43EE30
:10175000412A90ED013A00EEE00A22EE232AD0ED74
:10176000020A02EE832A00EE202A22EE210A81EDEF
:10177000020A704772B6FEE770B5044600F00CF935
:101780000546601C02D004480078044400F004F9C7
:10179000401BA042FAD370BD040000202DE9F84F91
:1017A000DFF8BCA10022012503264FF00F090AF142
:1017B000040BAAF1040E00BF0B6805FA02F42340E3
:1017C000A34270D10F7907F00307012F01D0022F38
:1017D00016D187684FEA420806FA08FC27EA0C0788
:1017E000D1F80CC00CFA08FC4CEA070CC0F808C091
:1017F0004768A7430C79C4F3001494403C43446009
:101800000C79E443A4070AD0C4684FEA420C06FAF4
:101810000CF7BC438F6807FA0CF72743C7600C79B5
:1018200004F00304022C12D1D40800EB840CDCF881
:1018300020405707FF0E09FA07F824EA0804D1F8F8
:10184000108008FA07F848EA0408CCF820800468F9
:101850004FEA420C06FA0CF7BC430F7907F0030776
:1018600007FA0CF7274307604C6814F4403F70D028
:101870003C4C276847F480472760246822F0030720
:1018800004F480440094384C07EB040CDCF808485E
:1018900097074FEA177809FA08F7BC43334FB84265
:1018A00002D1002724E054E0314FB84201D1012792
:1018B0001EE0304FB84201D1022719E02E4FB84246
:1018C00001D1032714E02D4FB84201D104270FE0C6
:1018D0002B4FB84201D105270AE02A4FB84201D167
:1018E000062705E0284FB84201D1072700E0082766
:1018F00007FA08F72743CCF80878DAF8004057468B
:10190000D1F804C09C435FEACC2C00D51C433C605A
:10191000DBF800405F46D1F804C09C435FEA8C2CA2
:1019200000D51C433C60DEF800407746D1F804C087
:101930009C435FEA8C3C00D51C433C60084F083F49
:101940003C68D1F804C09C435FEACC3C00D51C4302
:101950003C60521C102AFFF42FAFBDE8F88F000046
:10196000083C014044380240003001400000024081
:101970000004024000080240000C02400010024037
:101980000014024000180240001C02400AB18161AC
:1019900070470904FBE700000148806870470000B9
:1019A0000400002002488168027811448160704779
:1019B000040000200B4810B5016841F4007101607B
:1019C000016841F480610160016841F48071016047
:1019D000032000F09FF80F2000F006F800F050F808
:1019E000002010BD003C024030B505461F4887B0BE
:1019F0000024016841F010010160006806A900F0B0
:101A00001000009001A800F031F90498A8B100F08E
:101A10004DF940001649174AB0FBF1F11648491E2E
:101A2000026040F2E732C0E90324C0E90114846196
:101A300000F0BFFC040003D015E000F037F9E9E73F
:101A40000D4800F0E5FC04000DD1362000F034F81C
:101A5000102D07D200222946362000F03BF8074817
:101A6000056000E0012407B0204630BD4038024048
:101A700040420F0000100040A40400200800002095
:101A80000C4882B0016841F480410160006800F4B4
:101A9000804000900748001F016841F080510160BC
:101AA0000068002200F0805000900F21901E02B0CC
:101AB00000F010B844380240002809DB00F01F0293
:101AC000012191404009800000F1E020C0F80011A0
:101AD00070470000F0B40E4B1B680C46C3F30223A2
:101AE000C3F10705042D00D90425191D072901D2CA
:101AF000002300E0DB1E012606FA05F1491E214005
:101B000099409E40761E16403143F0BC02F02EBA3A
:101B10000CED00E0064900F0070208684FF6FF03ED
:101B2000184040EA0220034A104308607047000052
:101B30000CED00E00000FA052DE9F0470E46050027
:101B400065D0DFF81481D8F80000F7B200F0070084
:101B5000B04207D288F80070D8F8000000F0070003
:101B6000B04254D128683D4C810712D5400703D5B7
:101B7000206840F4E05020602878000703D52068F2
:101B800040F4604020602068A96820F0F00008431D
:101B900020602878C0072DD03049686808390128AE
:101BA00012D0022813D0032811D009688907002910
:101BB0002DDA216821F0030101432160FFF7ECFEDB
:101BC000814641F2883A0EE009688903EFE7096827
:101BD0008901ECE7FFF7E0FEA0EB0901514502D9CE
:101BE0000320BDE8F0872068696800F00C00B0EBC6
:101BF000810FEFD1D8F80010404601F00701B14243
:101C000007D90770006800F00700B04201D001203A
:101C1000E7E72878400705D52068E96820F4E05018
:101C2000084320602878000706D52068296920F439
:101C3000604040EAC100206000F048F82168084A8E
:101C4000C1F30311515CC8400649086006480068AA
:101C5000FFF7CAFE0020C4E7003C024008380240FB
:101C60003058000810000020080000200F220260F9
:101C70000C4A136803F003034360136803F0F00396
:101C80008360136803F4E053C36012684FF4E053B9
:101C900003EAD20202610448006800F0070008600D
:101CA0007047000008380240003C024004480549E3
:101CB00000680968044AC1F38221515CC84070473A
:101CC000100000200838024040580008154810B5A0
:101CD000006810F00C02144813D01449042A0FD0E5
:101CE000082A0ED10F4C241F2268236802F03F02FD
:101CF0005B0207D52068C0F38810A0FB010106E055
:101D0000084610BD2168C1F38811A1FB0001002322
:101D1000FEF7B6FA2168C1F30141491C4900B0FB46
:101D2000F1F010BD083802400024F40040787D0135
:101D30002DE9F84F04006ED02078DFF84C93C007EF
:101D4000A9F104054AD009F104000168C1F3810139
:101D5000012908D00068C0F3810002280AD1D9F80F
:101D60000000400206D52868800337D56068002847
:101D7000E1D033E06068B0F5803F10D0B0F5A02F1F
:101D8000286810D020F480302860286820F4802053
:101D900028606068A8B1FFF7FFFD06460DE02868DF
:101DA00040F48030F4E740F480202860F7E700BF7B
:101DB000FFF7F2FD801B642873D828688003F7D5ED
:101DC0000CE0FFF7E9FD064605E000BFFFF7E4FD84
:101DD000801B6428F0D828688003F7D42078DFF8C7
:101DE000AC8280074FF0000A3ED5A748001D01686D
:101DF00011F00C0F08D00068C0F3810002280BD14D
:101E0000D9F80000400207D42868800716D5E0689A
:101E1000012800D112E033E1E068B8B10120C8F830
:101E20000000FFF7B9FD064605E000BFFFF7B4FD6F
:101E3000801B0228C0D828688007F7D52868216948
:101E400020F0F80040EAC10028600DE0C8F800A0CA
:101E5000FFF7A2FD064604E0FFF79EFD801B022867
:101E60001FD828688007F7D42078000722D5864F2E
:101E700087486169703771B101210160FFF78CFDFE
:101E8000064604E0FFF788FD801B022809D8386861
:101E90008007F7D50EE0C0F800A0FFF77DFD0646ED
:101EA00005E082E0FFF778FD801B02287DD83868C6
:101EB0008007F7D42078400768D5DFF8CCB1002739
:101EC0000BF13C0BDBF80000C0000BD4DBF800107A
:101ED00041F08051CBF80010DBF80000012700F042
:101EE000805000906B4E3068C00510D4306840F4CC
:101EF00080703060FFF750FD009005E0FFF74CFD6B
:101F00000099401A022850D83068C005F6D55E4EB8
:101F1000A0686C3601280FD00528306810D020F05A
:101F200001003060306820F004003060A068B8B173
:101F3000FFF732FD00900FE0306840F00100F4E759
:101F400040F004003060F7E7FFF726FD0099411AE2
:101F500041F28830814266D830688007F4D50EE0BF
:101F6000FFF71AFD009007E0FFF716FD0099411AF0
:101F700041F28830814256D830688007F4D42FB1BE
:101F8000DBF8001021F08051CBF80010A069C8B335
:101F90003D49091D0968C1F3810102294AD002287F
:101FA000504607D0C8F8600000E03CE0FFF7F4FCC2
:101FB00004463BE04746C8F86000FFF7EDFC0646E4
:101FC00005E000BFFFF7E8FC801B02282BD828683B
:101FD0008001F7D4D4E907010843A16A2E4A4908D1
:101FE00002EB0141626A41EA8211084394F82C1025
:101FF00040EA0161C9F8001001203866FFF7CCFC07
:10200000044606E03EE000BFFFF7C6FC001B0228C6
:1020100009D828688001F7D534E000BFFFF7BCFC81
:10202000001B022802D90320BDE8F88F2868800130
:10203000F4D427E00128F7D0D9F80000E26900F4D1
:10204000800191421CD1226A00F03F01914217D1D8
:1020500047F6C071626A0140B1EB821F10D1A26ADB
:102060004FF0FF3300F4403103EB5202B1EB024F6B
:1020700006D194F82C1000F07060B0EB016F01D025
:102080000120D1E70020CFE704380240000047429A
:10209000800E4742007000400000FFFF70B5040052
:1020A00009D0606A002540B125616561A56294F898
:1020B000510040B10CE0012070BD6068B0F5827F36
:1020C000F4D0E561F2E784F85050204600F044F87F
:1020D000022084F851002068016821F0400101606D
:1020E000A088218900F4827001F404410843A18989
:1020F00001F400610843217C01F002010843217DC5
:1021000001F001010843218B01F400710843217F94
:1021100001F03801084394F8201001F080010843D1
:10212000218D01F40051084321680860A069042151
:1021300001EA104094F8241001F0100108432168CE
:1021400048602068C16921F40061C16165650120B2
:1021500084F85100002070BD10B586B004461421EB
:102160006846FEF7D7F813492068884220D1124804
:102170000021026842F480520260006800F480503E
:1021800005900D481438026842F0010202600068B0
:1021900000F001000590E02000900220CDE901014F
:1021A000032003900520049069460448FFF7F6FADF
:1021B00006B010BD0030014044380240000002402B
:1021C0002DE9FF4F81B0044690F8500000260E9F85
:1021D0001D4693464FF0010901280FD04FF0010A28
:1021E00084F850A0FFF7D8FB804694F8510061684E
:1021F00001280DD0B1F5827F08D103E0022005B09F
:10220000BDE8F08FA16809B9042801D00226C9E011
:102210000298002865D0BBF1000FFBD0002DF9D04B
:1022200094F85100042802D0052084F851000020C1
:102230006065C4F838B0E587A58702992163E58613
:10224000A5862064606420680168490603D401689B
:1022500041F040010160E068B0F5006F606803D0B4
:10226000F0B3012D47D081E008B1012D3CD1206BA6
:1022700021680088C860206B801C2063E08E401EAF
:10228000E08631E02068816889070FD5E18E69B169
:10229000B9F1010F0AD1216B0988C160206B801C44
:1022A0002063E08E401EE0864FF0000920688168C0
:1022B000C9070CD0E18F51B1C068A16B0880A06B39
:1022C000801CA063E08F401EE0874FF00109FFF7FC
:1022D00063FBA0EB0800B84206D3781C04D001E0F1
:1022E00009E05BE003265BE0E08E0028CAD1E08FC6
:1022F0000028C7D140E0206B216800780873206B6C
:10230000401C2063E08E401EE0862FE0206881683C
:1023100089070FD5E18E69B1B9F1010F0AD1216B9F
:1023200009780173206B401C2063E08E401EE0861C
:102330004FF0000920688168C9070CD0E18F51B1C6
:10234000C068A16B0870A06B401CA063E08F401EAA
:10235000E0874FF00109FFF71FFBA0EB0800B84230
:1023600002D3781C02D0BAE7002FB8D0E08E002844
:10237000CCD1E08F0028C9D142463946204601F031
:1023800073FC18B10126202060650BE0A06818B925
:102390002068C16880680090606D08B1012601E086
:1023A00084F851A0002084F85000304627E7704799
:1023B000704710B5040003D094F83D0010B107E059
:1023C000012010BD002084F83C00204600F01EF8DB
:1023D000022084F83D00211D206801F047FD012006
:1023E00084F8460084F83E0084F83F0084F84000FA
:1023F00084F8410084F8420084F8430084F84400E3
:1024000084F8450084F83D00002010BD70470000AE
:1024100090F83D10012901D001207047022180F879
:102420003D100168CA6842F00102CA6000681149A3
:10243000884214D0B0F1804F11D00F4988420ED09D
:102440000E4988420BD00E49884208D00D49884277
:1024500005D00D49884202D00C49884204D18168D8
:1024600001F00701062903D0016841F00101016074
:1024700000207047000001400004004000080040B8
:10248000000C0040000401400040014000180040E2
:1024900070472DE9F04104460068C66805694FF0B1
:1024A0000007A90713D5B10711D5F91E0161012055
:1024B0002077206880698007204602D0FFF7E8FF78
:1024C00004E000F07EF8204600F07CF827776807EB
:1024D00016D5700714D521686FF00400086102203A
:1024E00020772068806910F4407F204602D0FFF7F3
:1024F000CFFF04E000F065F8204600F063F827778E
:10250000280715D5300713D521686FF0080008613A
:10251000042020772068C0698007204602D0FFF79A
:10252000B7FF04E000F04DF8204600F04BF82777A5
:10253000E80616D5F00614D521686FF01000086182
:10254000082020772068C06910F4407F204602D020
:10255000FFF79EFF04E000F034F8204600F032F868
:102560002777E80708D0F00706D021686FF0010050
:102570000861204600F028F8280608D5300606D560
:1025800021686FF0800008612046FFF710FF6806A1
:1025900008D5700606D521686FF040000861204616
:1025A00000F01CF8A8060AD5B00608D521686FF01F
:1025B000200008612046BDE8F041FFF7F9BEBDE804
:1025C000F08170477047000000680349884201D1DC
:1025D000FFF7E8B9704700000010004070470000A6
:1025E00070B5044600203C4D2074A27B28886168A9
:1025F0004243D4F8F400FDF774FEA17B28884143E0
:102600006068FDF787FEA07B10FB00F1288841433E
:10261000D4F81801FDF77EFE207BA17B10FB01F1B1
:1026200028884143D4F80C01FDF774FE00202BE00C
:10263000D4F8F41001EB800292ED000AB5EEC00A66
:10264000F1EE10FA1ED0227C01EB820181ED000A2E
:10265000227C616A8854A169227B01EB8001237C82
:1026600091ED000A6169095C12FB03116FF003022E
:1026700002EB8101D4F80C21114481ED000A217C88
:10268000491C2174401CC0B2A17B8142D0D80020DB
:1026900010E0636AE2691B5C02EB830292ED000AC0
:1026A00010FB0101D4F81821401C02EB8101C0B2DB
:1026B00081ED000A217C8142EBD8C8B224F8780F62
:1026C00014F86C0C608020816181218361832084F7
:1026D000618424F8301C70BD14010020FEE7000066
:1026E00010B504462DED048BD0F8EC00D0ED009A27
:1026F00090ED019AD0ED028A29EEA90A90ED038AA5
:1027000009EE090A08EEA80A08EE080A02F08CFA97
:102710005FF00000D4F8EC1001EB8001401CD1ED1B
:10272000000AC0B2042860EE800AC1ED000AF1D3AD
:102730003E48D4F8001190ED6F0A60EE090AB6EE3B
:10274000000A60EE800AC1ED040AD0ED6F0AD4F8E9
:10275000001160EEA80A60EE800AC1ED050AD0ED16
:102760006F0AD4F8001120EEA91AFEEE000A21EE3D
:10277000201A81ED0A1A90ED6F1AD4F8001121EE9B
:10278000081A21EE001A81ED0B1A90ED6F1AD4F899
:10279000001121EE081A21EE201A81ED101A90ED99
:1027A0006F1AD4F8001121EE291A21EE201A81EDBA
:1027B000111A90ED6F1AD4F8001121EE281A21EEAB
:1027C000000A81ED160A90ED6F0AD4F8001120EE90
:1027D000090A20EE200A81ED170AD4F8F810D0ED8E
:1027E000740A91ED1C0A80EE201A81ED1C1AD4F8AF
:1027F000F810D0ED740A0E4891ED230A80EE201AED
:102800009FED0C0A81ED231AD4F8F8100A6F82426A
:1028100001DD81ED1C0AD4F8F810D1F88C20824239
:1028200001DD81ED230ABDEC048B10BD3043002097
:1028300000401C4600401C4670B52C4C01252DED77
:10284000028B04F5D8702570B7EE008A80EC030A7D
:1028500000209FED270A84ED730A84F83801C4E94B
:102860005000C4E9520011EE900AB0F17E5F01DD24
:10287000F0EE481AC4ED741A84ED642A0323002292
:102880000621201D00F09CFD1A4B01221146A3F1E8
:102890000800FDF729FF54F8EC0F9FED170A90226E
:1028A00080ED008A54F86409184980ED010A606ED1
:1028B00080ED020A606E80ED030A1048A0641048A3
:1028C000E064104820651048606504F85A5C04F81C
:1028D000595CE06FFDF705FD606F9022BDEC028B47
:1028E0000B49BDE87040FDF7FCBC00003043002000
:1028F00077CC2B32F8440020000000001529000896
:10290000E126000849290008212E0008785800080F
:102910005C01002010B50446902254F8F81F0848C6
:10292000FDF7DFFC48220748616AFDF7DAFC05483D
:1029300061694822BDE810404830FDF7D2BC000074
:102940005C0100201045002070B50446B0EE000A7E
:1029500054F8EC0F2B4DD0ED000A60EE800AC5ED67
:10296000090AD0ED010A60EE800AC5ED0A0AD0ED31
:10297000020A60EE800AC5ED0B0AD0ED030A20EED4
:10298000800A85ED0C0A14F8DE0C14F8E01C10FB2C
:1029900001F11D4800884143206AFDF7BBFCD5EDDD
:1029A0000B1A206AB1EE612A80ED002A206AD5ED6B
:1029B0000C0AC0ED010A95ED090A206AB1EE401A31
:1029C00080ED021A206A95ED0A1A80ED031A206A3A
:1029D00080ED061A206A80ED070A206AC0ED080A19
:1029E000206AC0ED091A206A80ED0C0A206AB1EE57
:1029F000410A80ED0D0A206A80ED0E2A206AC0EDA2
:102A00000F0A70BD180100201401002070B5F74CAA
:102A10002DED088BB0EE438AF0EE629AB0EE42AA3A
:102A2000F0EE61AA2078B0EE419AB0EE60BAF0EE16
:102A300040BADFEDEF8A58B9B0EE682AF7EE001A17
:102A40009FEDEC1ADFEDEC0AB2EE040AFFF7F4FE9C
:102A500084ED6F8A94ED580AE84D90227BEEC00A0F
:102A6000E749C4ED5B0A94ED590A3BEE401A84ED48
:102A70005C1A94ED5A0A79EE401AB6EE000A60EE3E
:102A8000800AC4ED5D1A60EE880AC5ED000A61EEA9
:102A9000000A21EE800A60EE880A20EE080AC5EDE1
:102AA000010A85ED020AD4F8040104F58274FDF7E9
:102AB00018FC95ED000A2068B1EE402A80ED012A4D
:102AC00095ED011A2068F1EE412AC0ED022AD5EDFC
:102AD000021A2068F1EE610AC0ED030A206880ED59
:102AE000060A2068C0ED081A2068C0ED092A20688F
:102AF00080ED0C1A2068C0ED0D0A206880ED0F0AE9
:102B00002068C0ED121A206880ED131A54F8440BA7
:102B100080ED142A74E85201084305D1C4ED5EAA81
:102B200084ED5FAAC4ED609A94ED5E0AD4ED640A68
:102B300094ED6F1A20EE202A31EE200AC2EE001A20
:102B400021EE2A2AC2EE002A31EEA22A84ED5E2A64
:102B5000D4ED5F1A61EEA02AC2EE801A61EE0A2A55
:102B600021EE291A82EE803A71EE831AC4ED5F1AC3
:102B7000D4ED602A62EEA02AC2EE800AC1EE002ADD
:102B800022EE020A01EEA10A70EEA20AC4ED600A6A
:102B900000EEA00A02F048F885ED030A5FF000009D
:102BA00004EB8001D1ED5E0AA16801EB800160EECB
:102BB000800A401CC0B2C1ED000A0328F0D394ED96
:102BC0005B0AD4ED5C0A20EE000A00EEA00AD4ED08
:102BD0005D0A00EEA00A02F027F8B7EE008A8949E4
:102BE000C8EE000AC4ED650A95ED031A10EE900ACE
:102BF00088EE010A884284ED660A0BDA10EE100AAC
:102C00008149884206DD10EE100A8049884201DAC7
:102C1000012000E0002084F8390194ED6C0AD4ED25
:102C20006F0AD4F8180120EE200A80ED000A94ED16
:102C30006C0AD4ED6F0AD4F8180120EE200A80ED5A
:102C4000070A94ED6C0AD4ED6F0AD4F8180120EE4F
:102C5000200A80ED0E0A94ED6C0AD4ED6F0AD4F8C8
:102C6000180120EE200A80ED150A94ED6D0AD4EDCE
:102C70006F0AD4F8180120EE200A80ED1C0A94EDAA
:102C80006D0AD4ED6F0AD4F8180120EE200A80ED09
:102C9000230AD4F81C0194ED6E0A80ED000AD4F8E2
:102CA0001C0194ED6E0A80ED040AD4F81C0194ED29
:102CB0006E0A80ED080A201D00F06CFE606890ED41
:102CC000001A84ED541A90ED010A61EE012A84ED98
:102CD000550AD0ED021AC4ED561A90ED032A40EEC3
:102CE000002A84ED572AD0ED040A21EE021AC4ED21
:102CF000580AD0ED050AC4ED590A00EE211AC4EDB8
:102D00005A8AF0EE008AF0EE480A52EEA80A21EE46
:102D1000280A01F05DFA9FED3E9AF0EE480A20EE97
:102D2000090A84ED6A0A94ED541A94ED570A61EE8B
:102D3000011A40EE001A51EEA80AD4ED551A21EE00
:102D4000211AD4ED561A01EE801A21EE280A01F05C
:102D50003FFA20EE090A84ED690A94ED550AD4ED94
:102D6000570A94ED561A20EE200AD4ED540A00EECC
:102D7000C10AF8EE000A20EE200A01F093F920EED5
:102D8000090A244984ED680A94ED6A0AD4ED760AAA
:102D900070EE600A10EE900A884203DDB4F8D401A8
:102DA000401E07E010EE900A1B49884204D9B4F88F
:102DB000D401401CA4F8D401B4F9D401DFED171AF2
:102DC00000EE900AB8EEE01AF0EE400A41EE210A59
:102DD000C4ED6B0A84ED760AF4E95201401C41F11E
:102DE0000001C4E90001BDEC088B70BD3043002038
:102DF000000000008096184B6F12833A18010020E3
:102E0000785800089A99993ECDCC1441CDCC2441F4
:102E1000E12E654200003443000034C30000B44397
:102E20002DE9F84F00F18001044678300546009105
:102E3000FDF7D2FE84F8C800B4F87800A4F8A80022
:102E4000B4F85A00A4F8AA0004F1A80204F1580149
:102E500091468B462846FDF7B9FD84F8C800B4F8C2
:102E6000A800A4F8B000B4F88200A4F8B20004F1FD
:102E7000B002904648460099FDF7A8FD84F8C800C6
:102E8000B4F89000A4F8A000B4F89200A4F8A2004E
:102E900004F1A002154604F190014046FDF7DAFB6B
:102EA00084F8C80041462846B034FDF721FC20765E
:102EB000E16BBF480126D1ED001AB0EE002AC0ED4B
:102EC0000D1AD1ED010A0027C0ED0E0A91ED020A9C
:102ED000B84D80ED0F0A91ED031A80ED101A60EEE7
:102EE000812A34F8380C2081668141EEC02AE06FD7
:102EF00062EE822AC0ED002A61EEA02A61EEA11ADC
:102F0000E06F40EE012A40EEE01A22EE822A40EE07
:102F1000401A80ED012AE06FB4F1B00441EE011ACD
:102F2000C0ED021AD4F82C0100EB870090ED000AE6
:102F3000B0EEC00A01F02AF805EB87007F1CFFB253
:102F400080ED610A032FEDD3B4F84800A4F8C00067
:102F500004F1C00204F1B801A4F8C26017468A4621
:102F600004F14800FDF7EEFD84F8C800B4F8C00095
:102F7000A4F8A80024F8AA6F4A4639464046FDF74F
:102F800025FDA077E681E08A208251463846FDF78C
:102F900023FEA077884A49465046FDF717FDA077E3
:102FA00095ED730AB6EE001AD5ED720A20EE011AFD
:102FB000AA3CF4EEC10AF1EE10FA01D285F83861AC
:102FC000F4EEC00A0020F1EE10FA35DD95F8381164
:102FD00089B395F8391139B1D5E95021521C41F125
:102FE0000001C5E9502102E00021C5E95011D5E9F1
:102FF00050234FF0320C0021BCEB0202994102D267
:1030000085F8380136E06D4D14F80C2F28884243BE
:10301000D4E937017434FDF764F914F8740C10FB2B
:1030200000F228884243D4E91E01FDF75AF904F85A
:10303000546CBDE8F88FFFE79FED611A20EE011A8E
:10304000F4EEC10AF1EE10FA0DDD95F8381151B128
:1030500070EE600A9FED5B1A20EE010A80EE801A86
:1030600085ED671A03E0B7EE000A85ED670A0021D7
:10307000C5E9501184F82C00B4F85800A4F8A80051
:10308000B4F88200A4F8AA004A4658466C34009965
:10309000FDF79CFC04F85C0FA4F130029346414616
:1030A0004846C83CFDF792FC84F8C80000200DE0BB
:1030B000D4F81C11D5ED670A01EB8001401C91ED9D
:1030C000000AC0B220EE200A81ED000AB4F8981080
:1030D000B4F89A2051438142EADC04209FED3A0A79
:1030E000002105EB800C00EB400300BF9CED5D1A56
:1030F000D4F81C2103EB0108C1EE000A02EB8802A0
:10310000491C92ED001AC9B2032960EE810AC2ED92
:10311000000AEBD3401CC0B20628E1D334F8980F64
:1031200052462084668439465846FDF74FFC84F8A1
:10313000300095F83801983C50B39FED240ADFED3C
:10314000240A0420D4F8BC1095ED6F1A01EB80011D
:1031500021EE001AD1ED001AF4EEC11AF1EE10FAC8
:1031600001DD81ED001AD4F8BC1095ED6F1A01EB6A
:10317000800121EE201AD1ED001AF4EEC11AF1EE11
:1031800010FA01D281ED001A401CC0B20628D9D332
:10319000D4F8BC009FED0F0A04F1300280ED030A61
:1031A000514604F13800FDF755FA84F8C80040E7AD
:1031B0001801002030430020F044002014010020BA
:1031C000CDCCCC3D6666663FDA0FC93F0AD7233CBB
:1031D0000AD723BC00000000124810B5B7EE000A61
:1031E00080ED010A80ED020A80ED030A9FED0E2AB0
:1031F000012180ED042A80ED052A80ED062A017068
:10320000F7EE001A9FED091ADFED090AB2EE040A83
:10321000FFF712FB03489FED070A803880ED100A84
:1032200010BD000014430020000000008096184BE1
:103230006F12833A96430B3C30B558492DED028B03
:1032400087B007C904AB83E807005548FEF76AF961
:10325000534D544885ED010AD5ED020A30EE800A3F
:1032600085ED020AFDF732FD4E484F4C90ED000A05
:1032700084ED070AD0ED010AC4ED080AD0ED020A78
:10328000C4ED090A90ED031A84ED041A90ED041AB6
:1032900084ED051A90ED051A84ED061A00F098FFEA
:1032A0009FED428A20EE080ADFED410A80EE201AE7
:1032B00084ED1A1AD4ED090A94ED080A00F088FF8B
:1032C00020EE080ADFED3B0A04F1100080EE201A20
:1032D00084ED1B1A95ED013A90EC060AFFF796FB78
:1032E000354B0FCB84E80F002C48224602F14401F5
:1032F0002438FDF76AFE2948224602F150011838A9
:10330000FDF763FE2548224602F15C010C38FDF70B
:103310005CFE2246694604A8FEF7B7F995ED010A5E
:1033200000206A4604EB800102EB8003D1ED070A1E
:1033300093ED001A401CC0B270EEC10A94ED101A51
:10334000032860EE801A71EE000A81EEA02AD1ED0A
:103350000A1A21EE811AC1EE201A72EE210AC1ED7D
:103360000A0ADFD3104A02F13401A1F10C00FDF783
:103370002CFE124890ED6A0A84ED1E0A90ED690A4F
:1033800084ED1D0A90ED680A84ED1C0A90ED6B0A2D
:1033900084ED1F0A07B0BDEC028B30BD6C580008ED
:1033A00008010020604200209442002000003443C5
:1033B000DB0F49C0DB0F4940804400203043002030
:1033C0002DE9F047DFF8DC830D460421A8F8001052
:1033D0000821A8F802100573427383734FF00009A7
:1033E0001E46044680F810901746304601F050FC07
:1033F00031466061FCF78EFFB8F80000704301F0C1
:1034000047FCA061B8F800107143FCF783FFB8F8DF
:103410000000704301F03CFCE061B8F8001071431B
:10342000FCF778FFB8F80000684301F031FC206237
:10343000B8F800106943FCF76DFF304601F028FC36
:1034400031466062FCF766FFB8F80000684301F09F
:103450001FFC2060B8F800106943FCF75BFFB8F868
:103460000000704301F014FC6060B8F80010714374
:10347000FCF750FFB8F80000784301F009FCA060A9
:10348000B8F800107943FCF745FFB8F8000068432E
:1034900001F0FEFBC4F8E800B8F800106943FCF73F
:1034A00039FF217B012204F13000D4F8E830FDF728
:1034B0001BF9B8F80000684301F0EAFBC4F8EC001F
:1034C000B8F800106943FCF725FF217B012204F1C5
:1034D0003800D4F8EC30FDF707F99FB1B8F80000D8
:1034E000784301F0D5FBC4F8F000B8F80010794338
:1034F000FCF710FF617B012204F14000D4F8F030AA
:10350000FDF7F2F8B8F80000704301F0C1FBC4F811
:10351000F400B8F800107143FCF7FCFEA17B012217
:1035200004F14800D4F8F430FDF7DEF8B8F80000F4
:103530006843684301F0ACFBC4F8F800B8F8001029
:1035400069436943FCF7E6FE217B04F150000A461B
:10355000D4F8F830FDF7C8F8B8F8000068436843BD
:1035600001F096FBC4F8FC00B8F800106943694309
:10357000FCF7D0FE217B04F158000A46D4F8FC3059
:10358000FDF7B2F8B8F800006843684301F080FB2B
:10359000C4F80001B8F8000088346843684301F0BB
:1035A00077FBE067B8F80010A06F69436943FCF748
:1035B000B1FEB8F80010E06F69436943FCF7AAFE5A
:1035C00054F8783FA4F1A00014F8F41CA4F580741A
:1035D0000A46FDF789F8217B04F168000A46D4F811
:1035E0000431FDF781F8AFB1B8F8000068437843C3
:1035F00001F04EFBC4F80801B8F8001069437943A4
:10360000FCF788FE627B217B04F17000D4F808315E
:10361000FDF76AF8B8F8000047467043684301F0C8
:1036200037FBC4F80C01388894346843704301F0C8
:103630002FFBE0673988A06F71436943FCF76AFE8E
:103640003988E06F69437143FCF764FE14F8882CF5
:1036500014F8861CA4F11C00A36F943CFDF744F8F9
:10366000A27B217B04F18000D4F81031FDF73CF8F7
:1036700038886843684301F00BFBC4F814013988AB
:1036800069436943FCF746FE217B04F188000A4642
:10369000D4F81431FDF728F838887043704301F0EE
:1036A000F7FAC4F81801398871437143FCF732FE08
:1036B000A17B04F190000A46D4F81831FDF714F804
:1036C00038886843704301F0E3FAC4F81C01398874
:1036D00069437143FCF71EFEA27B217B04F1980035
:1036E000D4F81C31FDF700F8207B10FB00F039887E
:1036F000484301F0CDFAC4F82001207B10FB00F014
:103700003988484301F0C4FAC4F82401207B10FB37
:1037100000F03988484301F0BBFAC4F82801207B47
:103720003988484301F0B4FAC4F82C01207B398869
:10373000484301F0ADFAC4F83001217B04F1A00048
:103740000A46D4F82031FCF7CFFF217B04F1A80012
:103750000A46D4F82431FCF7C7FF217B04F1B000FE
:103760000A46D4F82831FCF7BFFF217B012204F17F
:10377000B800D4F82C31FCF7B7FF217B012204F10B
:10378000C000D4F83031FCF7AFFF04F8289F84F86C
:10379000019084F8029084F8039084F80490BDE8C6
:1037A000F08700001401002070B50446C07B0F4D67
:1037B00018B12046FEF714FF0DE0A27B288861684F
:1037C0004243D4F8F400FCF78CFDA17B28884143E8
:1037D0006068FCF79FFD627B2888A1684243D4F8AB
:1037E000F000BDE87040FCF77CBD00001401002033
:1037F0002DE9F041044690F82C0000282BD1B4F8B4
:103800009800A4F8A800B4F87A10A4F8AA10A4F8B4
:10381000B000B4F85A00A4F8B20004F1A8021746A8
:1038200004F1780104F19800FDF7D0F884F8C8009D
:1038300004F1B00204F1580116460D463846FDF772
:10384000C5F884F8C80004F1500231462846FDF757
:1038500079F984F8C800BDE8F0812DE9F04104460B
:1038600090F8290000282CD104F1680104F16000CF
:103870000F460546FDF7B0F984F8C80004F1580278
:10388000164604F150012846FDF7A0F884F8C80058
:10389000B4F85800A4F8A800B4F86A00A4F8AA0084
:1038A00004F1A802154639463046FDF78FF884F832
:1038B000C800324604F188012846FCF7CBFE84F8A4
:1038C000C800BDE8F0812DE9F047044690F82A00D1
:1038D00000285CD104F1800104F178008946054696
:1038E000FDF77AF984F8C800B4F87800A4F8A800C5
:1038F000B4F85A00A4F8AA0004F1A80204F158018F
:1039000090460F462846FDF761F884F8C800B4F8E1
:10391000A800A4F8B000B4F88200A4F8B20004F142
:10392000B002154649464046FDF750F884F8C800F5
:10393000B4F89000A4F8A000B4F89200A4F8A20093
:1039400004F1A002164604F190012846FCF782FE1D
:1039500084F8C80029463046AA34FCF7C9FEA0778F
:1039600034F8520C24F8020C34F8280C208042461B
:1039700049463846FDF72AF804F81E0FA4F1300234
:1039800029464046C83CFDF721F884F8C800BDE848
:10399000F087000070B50446FFF706FFD4F8CC109E
:1039A00009B120468847204600F068F8D4F8D010C6
:1039B00009B1204688472046FFF74FFFD4F8D410BE
:1039C00009B120468847207C2B4DC0B9E07BB0B1BF
:1039D000227B28884243D4E93A01FCF782FC207B11
:1039E00010FB00F228884243D4E93E01FCF779FC41
:1039F000D4F8E01009B12046884700202AE020468C
:103A0000FFF761FFD4F8D81009B120468847204657
:103A100000F06EF8D4F8DC1009B120468847204643
:103A2000FFF7E6FEE4E700BF10FB0101D4F8F82041
:103A300002EB8101226AD1ED000A02EB800292EDD5
:103A4000000AF4EEC00AF1EE10FA01D281ED000A8C
:103A5000401CC0B2217B8142E6D8CAB22888D4F883
:103A6000E81042432068FCF73CFCD4F8E41009B1AC
:103A700020468847206870BD140100202DE9F041E0
:103A8000044690F8280000282AD1627B04F1300116
:103A900004F1600004F1380522B3227BA4F8B820B9
:103AA000012604F1B802A4F8BA601746FCF78EFFAD
:103AB00084F8C800207BA4F8C000A4F8C26004F118
:103AC000C002164604F1400104F17000FCF77EFFCD
:103AD00004F8C80F2A4631463846FCF7BBFD207073
:103AE000BDE8F0812A46FCF771FF84F8C800F7E7CB
:103AF0002DE9F041044690F82B00002838D1B4F8A5
:103B00007800A4F8B800012504F1B80204F13801E6
:103B1000A4F8BA5090460F4604F17800FCF756FF1F
:103B200084F8C800B4F84800A4F8C00004F1C0024A
:103B3000A4F8C2501646414604F14800FDF702F8C9
:103B400084F8C800B4F89800A4F8B800A4F8BA50F3
:103B50004246314604F19800FCF738FF84F8C8006B
:103B600004F1300241463846FCF774FD84F8C80081
:103B7000BDE8F08100B587B01C2206496846FCF715
:103B8000B0FB0021684601F0C5F80349086007B0A2
:103B900000BD0000145800080000002030B587B0B8
:103BA00014216846FCF7B6FB1A48016841F004018D
:103BB0000160016801F004010591016841F0800194
:103BC0000160016801F080010591016841F0010187
:103BD0000160016801F001010591016841F00201F5
:103BE000016000680C4D00F002004FF4C0640590C5
:103BF000012221462846FDF7C9FE01210220CDE918
:103C00000210CDE9004169462846FDF7C7FD07B01F
:103C100030BD00003038024000040240104810B5AA
:103C20000E4901604FF482714160002102228160DF
:103C3000C0E9031201224261520282611022C0E9EE
:103C40000721416281620A21C162FEF727FA00283A
:103C500003D0BDE81040FDF78DBD10BD0030014020
:103C60004C040020FEE7FEE7F8B515460E460B466D
:103C7000009204460122022100F02CF8A0B913485A
:103C800013490068B0FBF1F04FF47A71484300909B
:103C90006068B0F5827F0DD1334600228021204636
:103CA000009500F017F870B1606D40F0200060657D
:103CB0000320F8BD009830B1401E00902068806855
:103CC000C0430006F6D50020F8BD0000100000201B
:103CD00000366E012DE9F8431E469146884604469B
:103CE000089DFDF759FE401B351AFDF755FE0746A6
:103CF00025480068C0F3CB30684338E0701C37D0EB
:103D0000FDF74AFEC01BA84203D215B1009860B36C
:103D10002CE02068416821F0E00141606068B0F566
:103D2000827F0BD1A068B0F5004F02D0B0F5806F54
:103D300004D12068016821F040010160A06AB0F55B
:103D4000005F09D12068016821F4005101602068FA
:103D5000016841F400510160012084F85100002005
:103D600084F850000320BDE8F8830025401E009031
:103D70002068816838EA010004D000214945BDD19E
:103D80000020F0E70121F9E71000002010B55020D5
:103D900080F31188BFF34F8FBFF36F8F01F072FC78
:103DA00018B104494FF080500860002080F311885A
:103DB00010BD000004ED00E030B593B0302168463E
:103DC000FCF7A8FA14210CA8FCF7A4FA1E48002559
:103DD000016841F080510160006800F0805011904E
:103DE0001A48016841F4804101600068022400F42F
:103DF0008040119001200090000401908001CDE9E5
:103E00000640192008904FF4A870CDE90904042059
:103E10000B906846FDF78CFF08B172B6FEE70CA95F
:103E20000F2081E831004FF4A0500F904FF48050E4
:103E3000109005210CA8FDF77FFE002801D072B676
:103E4000FEE713B030BD0000403802400070004073
:103E50000248016841F470010160704788ED00E09C
:103E60000148FEF716BB0000A4040020F0B502686C
:103E7000294C2A4D2A4E2B4F2B4B4FF0804CA04201
:103E800009D0604507D0A84205D0B04203D0B8425F
:103E900001D0984204D122F0700E4A6842EA0E0224
:103EA000A0421BD0604519D0A84217D0B04215D00F
:103EB000B84213D0984211D01C4DA8420ED01C4DD0
:103EC000A8420BD01B4DA84208D01B4DA84205D0DC
:103ED0001A4DA84202D01A4DA84203D122F44075CF
:103EE000CA682A434D6922F080022A4302608A6828
:103EF000C2620A688262A04201D0984201D1096977
:103F00000163012141610169C90703D0016921F001
:103F100001010161F0BD000000000140000400400B
:103F200000080040000C0040000401400040014037
:103F3000004401400048014000180040001C0040BF
:103F400000200040FEE74100080218BF04200A0ECE
:103F500018BF40F001004FF07F4232EA010108BF74
:103F600040F00200012808BF052070470907090E2C
:103F7000002804DB00F1E02080F80014704700F016
:103F80000F0000F1E02080F8141D704710B510EE0E
:103F9000104A4FF01A402DED028B00EB4400B0F1B7
:103FA000C85F4AD84FF0FC40B0EB440F22D2B0EECD
:103FB000C00AF7EE000A30EEC00AF6EE000A20EE64
:103FC000208A18EE100A01F013F900EE100A14F01E
:103FD000004F1DBF9FED281ADFED280AB1EE400A01
:103FE0009FED271A08BFF0EE410AF8EE001A20EE06
:103FF000210A05E020EE008A9FED221ADFED220A59
:10400000DFED221A9FED222A70EEC00A20EE080A88
:1040100008EE212ADFED1F1A48EE021A9FED1E2A34
:1040200008EE212ADFED1D1A48EE021ABDEC028BC4
:1040300040EE610A30EE810A10BD4FF0CC40B0EB8B
:10404000440F82BF9FED160ABDEC028B10BD4FF0EE
:104050007F40B0EB440F05D2BDEC028BBDE81040B1
:1040600000F06BBB012000F039FCBDEC028BBDE819
:10407000104000F069BB00000000494022AA7D3AD0
:10408000000000000000C93F22AAFD3924FE1C3DAB
:10409000C78AD83C1E67383D1B93993DAFAA2A3E7C
:1040A000DB0FC93F10B54FF00E402DED028BB0EE87
:1040B000408A18EE104A00EB4400B0F1506F4AD825
:1040C0004FF0FC40B0EB440F22D2B0EEC80AF7EE3E
:1040D000000A30EEC00AF6EE000A60EE208A18EE02
:1040E000900A01F085F801EE100A14F0004F1DBF90
:1040F000DFED2D0A9FED2D0AB1EE411ADFED2C0AFE
:1041000008BF9FED2C0AF8EE001A21EE218A05E087
:10411000DFED290A68EE088AB0EE600A9FED271AE3
:10412000DFED271A30EE080A48EE811A9FED251AB6
:1041300008EEA11ADFED241A48EE811A9FED231A2A
:1041400008EEA11A68EE281ABDEC028B01EE810A76
:1041500030EE200A10BD4FF0E440B0EB440F0CD914
:1041600018EE100AFFF7EFFE042808BF00F0F4FA7B
:10417000B0EE480ABDEC028B10BD4FF07F40B0EBB3
:10418000440F07D2B0EE480ABDEC028BBDE81040E8
:1041900000F0D3BA012000F0A1FBBDEC028BBDE81A
:1041A000104000F0D1BA00000000C9BF22AAFDB93A
:1041B0000000C93F22AAFD390000000024FE1C3D7A
:1041C000C78AD83C1E67383D1B93993DAFAA2A3E4B
:1041D00010EE100A10B510EE901A4FF0684202EB84
:1041E00040032DED028BB3F1654F3CBF02EB410262
:1041F000B2F1654F7CD200BFC0F3C753C1F3C752C1
:104200009A1A1B2A09DD10F0004F14BF9FED6E0AA9
:104210009FED6E0ABDEC028B10BD12F11A0F1BDA76
:1042200011F0004F09D010F0004F0CBF9FED680A4D
:104230009FED680ABDEC028B10BD80EE208A18EE5F
:10424000100AFFF780FE042808BF00F085FAB0EEE0
:10425000480ABDEC028B10BD4200B2EB410F37D9CA
:1042600010F0004F19BFDFED5C1A9FED5C1ADFED17
:104270005C1A9FED5C1AB0EE602A0A46F1EE400A25
:1042800080F00041B0EE420A10460A1A5200B2F124
:10429000807F34D2484010F0004FDFED532A9FED6D
:1042A000533A1DBFBEEE002A71EEE21A31EE431AF8
:1042B000B6EE002A04BF71EEA21A31EE031AF0EE38
:1042C000402A42EE602A40EE020A82EEA02A18E05E
:1042D00011F0004F04BF9FED461AF0EE411AD4D002
:1042E00010F0004F1CBFDFED431A9FED431A00E0B2
:1042F00026E004BFDFED411A9FED411AC5E780EECD
:10430000202A22EE020ADFED3F0ADFED3F2ABDEC54
:10431000028B40EE202ADFED3D0A40EE220ADFED5F
:104320003C2A40EE202ADFED3B0A40EE220A22EE34
:10433000000A00EE201A31EE020A30EE210A10BD0A
:104340004FF07F42B2EB400F28BFB2EB410F05D2D6
:10435000BDEC028BBDE8104000F0F2B940EA010369
:104360005B0008BF41F0FF410BD0B2EB400F08BF2C
:10437000B2EB410F08D120F0804000EE100A21F08E
:10438000804100EE901A37E7B2EB400F12BF5FEAB0
:10439000410240F0FF4001F000413FF42DAF4A00E0
:1043A00092EA40033FF528AF002AACBF9FED1A1AEE
:1043B0009FED1A1A20EE010A60EE810A10EE100A33
:1043C00010EE901A18E70000DB0FC9BFDB0FC93FE2
:1043D000DB0F4940DB0F49C00000C9BF22AAFDB96D
:1043E0000000C93F22AAFD390060ED3EC30ACE3766
:1043F00000000000000049C022AA7DBA0000494028
:1044000022AA7D3A2DAD65BD8FB8D53D0FB511BE41
:1044100061C84C3EA8AAAABE0000804F0000802FB1
:1044200010EE101A08B5444A6846B2EB410F28D97D
:104430004FF0E640B0EB410F94BF00204FF0FF304B
:1044400000900098002861DB60EE000A10F0010F78
:1044500045D010F0020FDFED391A9FED391A00EE4A
:10446000E11ADFED381A40EE811A21EEA01AF0EEC3
:10447000400A40EE010A08BFF1EE600AB0EE600AA1
:1044800008BD314B21F0004293423CD911F0004F5E
:10449000DFED2E0A20EE201ADFED2D0A19BF31EED6
:1044A000601A71EE200A31EE201A71EE600ABDEE3C
:1044B000E01A11EE100A9FED271A00F0030000EE3B
:1044C000C10A9FED251A009000EEC10A9FED231A44
:1044D00000EEC10A9FED221A00EEC10AB1E79FED7E
:1044E000211A9FED210A10F0020F00EE810A9FEDC4
:1044F0001F1A00EE801AB7EE000A00EE810A18BFFC
:10450000B1EE400A08BD00F02FF99AE710EE100A4C
:104510004000B0F17F4F3CBFB7EE000A08BD07D1A5
:104520004FF0010000F0DAF9BDE8084000F00CB9E6
:10453000BDE8084000F001B9B61F927E336D4C39DA
:10454000DA82083CA0AA2ABE490E494683F9223FD6
:104550000000004B0000C93F00A0FD390020A2333D
:104560001A61342CB93AB2BACA9F2A3DDDFFFFBEA8
:1045700000B510EE101A2DED028B81B0524A68463C
:10458000B2EB410F2ED94FF0E640B0EB410F94BF94
:1045900000204FF0FF3000900098B0EE408A0028D5
:1045A0006ADB10F0010F4BD068EE080A9FED471A46
:1045B0009FED470A00EE810A9FED461A10F0020FA8
:1045C00000EE801AB7EE000A00EE810A02BF01B0C9
:1045D000BDEC028B00BD00BF01B0B1EE400ABDECE6
:1045E000028B00BD3C4B21F00042934241D911F0B7
:1045F000004FDFED3A0A20EE201ADFED390A19BF2D
:1046000031EE601A71EE200A31EE201A71EE600A66
:10461000BDEEE01A11EE100A9FED321A00F0030011
:1046200000EEC10A9FED301A009000EEC10A9FED26
:104630002F1A00EEC10A9FED2E1A00EEC10AABE759
:1046400028EE080A9FED2B1ADFED2B0A10F0020F5F
:1046500040EE410A9FED291A00EE201A61EE000A91
:10466000B0EE480A08EE200AB6D101B0BDEC028BCC
:1046700000BD00F079F88FE718EE100A4000B0F1A5
:104680007F4F0DD218EE100AFFF75DFC042808BF1B
:1046900000F062F8B0EE480A01B0BDEC028B00BD3C
:1046A00009D1012000F01AF901B0BDEC028B5DF8D0
:1046B00004EB00F049B801B0B0EE480ABDEC028B43
:1046C0005DF804EB00F039B8B61F927EB93AB2BA81
:1046D000CA9F2A3DDDFFFFBE490E494683F9223FAE
:1046E0000000004B0000C93F00A0FD390020A233AC
:1046F0001A61342C336D4C39DA82083CA0AA2ABEE8
:1047000010B52DED028BB1EEC08A18EE100A20F024
:104710000040C0F1FF40C00F0AD010EE100A20F098
:104720000040C0F1FF40C00F04BF012000F0D6F8E8
:10473000B0EE480ABDEC028B10BD30EE000A7047A7
:1047400030EE200A70470000DFED020A80EEA00A7A
:1047500070470000000000009FED020A20EE000AF2
:1047600070470000000000102DE9F0014FF07F427B
:10477000B2EB410F9FBF4FF0FF310160BDE8F00188
:1047800070474FF0004242EA0123C1F3C752783A22
:10479000551112F01F0C434CCCF120067C44C1F3A0
:1047A000C752A2F178024FEA621204EB820254F877
:1047B000254008BFD2E9015612D0556804FA0CF41E
:1047C00025FA06F73C43976805FA0CF527FA06F830
:1047D000D26807FA0CFCF24045EA08054CEA0206EA
:1047E000A4FB034CA5FB0352A6FB03631D449D429F
:1047F00034BF012600261319334416B1934202D95F
:1048000003E0934201D2012200E00022624402F15F
:10481000200C9206DC0C42EA443200EE102A5B03C4
:10482000DFED210AF8EEC01A00EE103A4FEA9C1CA8
:1048300011F0004FB8EE400AC0F800C020EE201A78
:1048400000EE105ADFED190AB8EE400A20EE200AF9
:1048500071EE810A70EE800A10EE902A02F5006275
:104860006FF30B0200EE902A70EEE11A31EEC11ADE
:10487000DFED101A30EE411A9FED0D0A20EE800A8E
:1048800001EE210A9FED0C1A00EE810A04BFBDE87B
:10489000F0017047CCF180510160BDE8F001B1EE4C
:1048A000400A704768110000000000360000802CAC
:1048B00022AAFD29DB0FC92F0000C92F02E008C87A
:1048C000121F08C1002AFAD170477047002001E08A
:1048D00001C1121F002AFBD1704700000149086086
:1048E00070470000F401002070B59FED321A1546A4
:1048F0002DED048BB0EE609A00EE901AB7EE008AB0
:104900000446F8EE600A20EE811AC8EE010A9FED17
:104910002A1A20EE010AC0EE208AB0EE680AFFF7DC
:1049200027FEB0EE401AB0EE680AF0EE419AFFF7AB
:1049300077FDF0EE000AB8EE002A69EE200A012D9C
:10494000C9EEA01A0ED0F0EE488AB6EE001A78EE44
:10495000C00A20EE020A20EE818A31EEA81A78EE13
:10496000E11A07E020EE020A31EE881A78EE611AA9
:10497000F0EE400AB0EE482AC2EE012A80EE812A0B
:10498000C4ED002AC8EE010A84ED012AC4ED020A32
:10499000C0EE010A81EE810AC4ED030A84ED040A27
:1049A0009FED060A84ED060A84ED050ABDEC048B32
:1049B00070BD0000BD378635DB0FC9400000000028
:1049C00070B50C462DED028BB0EE408A0546B0EE78
:1049D000000AFFF795FEB7EE001A2146C1EE000A65
:1049E000B0EE480ABDEC028B2846BDE870400022BC
:1049F000FFF77ABFFEF7F0FBFEF71EFC012000F088
:104A00007DF9F9E770B5FCF749F98020FCF7C2FAA7
:104A10005520FCF7BFFA5520FCF7BCFA424C207039
:104A2000FCF734F90120FCF7A7FEFCF737F98020EA
:104A3000FCF7B0FA5520FCF7ADFA5520FCF7AAFABE
:104A40002070FCF723F90120FCF796FEFCF726F90D
:104A5000B6217E20FCF7B0FAFCF718F95020FCF7DD
:104A60008BFEFCF71BF98020FCF794FA5520FCF72D
:104A700091FA5520FCF78EFA2070FCF707F9012017
:104A8000FCF77AFEFCF70AF98020FCF783FA552040
:104A9000FCF780FA5520FCF77DFA2070FCF7F6F859
:104AA0000120FCF769FE20781E2801D0FF2070BD90
:104AB0001D4D002060702435FCF7F0F8607800EBA5
:104AC00040004119285C4978FCF776FAFCF7DEF8DB
:104AD0000120FCF751FEFCF7E1F8607800EB4000A4
:104AE000285C40F08000FCF755FA5520FCF752FA9C
:104AF0005520FCF74FFA2070FCF7C8F80120FCF7AE
:104B00003BFE6078237800EB400129444A789A42C2
:104B100003D08978A2781143A170401CC0B26070A4
:104B20000628C9D3002070BD7C00002070B5FCF7BA
:104B3000C5F83C490020FCF721FAFCF7B7F8012042
:104B4000FCF71AFEFCF7BAF836490020FCF716FA13
:104B5000FCF7ACF80120FCF70FFEFCF7AFF8B6212C
:104B60001420FCF729FAFCF7A1F85020FCF704FE0A
:104B7000FCF7A4F82B490020FCF700FAFCF796F8A4
:104B80000120FCF7F9FDFCF799F826490020FCF715
:104B9000F5F9FCF78BF80120FCF7EEFD214C2078AD
:104BA0000F2801D0FF2070BD1E4D002060703635EB
:104BB000FCF784F8607800EB40004119285C4978E4
:104BC000FCF7FAF9FCF772F80120FCF7D5FDFCF7C9
:104BD00075F86078134900EB4000285CFCF7CEF9CB
:104BE000FCF764F80120FCF7C7FD6078227800EB41
:104BF00040012944497891420BD0401EC0B2094976
:104C0000607000EB400024310844A17880780843AC
:104C1000A0706078401CC0B260700628C8D3002025
:104C200070BD00007C00002010EE100AF6EE000AB5
:104C3000074960EE200AA1EB600000EE100A20EEAA
:104C4000801AF7EE080A41EE400A20EE800A70470B
:104C5000865A375FFCF7AEFEFFF7AEF8FEF79EFF11
:104C6000FEF7DCFFA820FCF7A1FC01210448FCF7BB
:104C700003F90028F9D1FEF77DFF00F046F8FEE7C2
:104C80004C04002001460020842900D0C81C704735
:104C9000F0B50B30154D20F007010024144A0FE049
:104CA00003688B420BD38B4205D95E1A43184768C1
:104CB000C3E9006700E04368136002C004E0021D1E
:104CC00010680028ECD12046002802D1286808B1DD
:104CD0000020F0BD064A07481060074A121A22F069
:104CE0000702C0E9002401202860D7E7F001002076
:104CF000EC010020A4450020A065002010B500B9FB
:104D0000012000F05BFB002010BD10B500F07CFB23
:104D1000002010BD7FB50D4604464169B0F908007A
:104D200081B1A16971B1FFF7ADFFD4E905128DE83A
:104D30000700D4E900102B46226900F078FC0390AC
:104D400004B070BDFFF79EFF03A9CDE90001208AE2
:104D50002B4682B2D4E9001000F03CFC012801D0BF
:104D60000020EDE70398EBE72DE9F041184C0F46E2
:104D70000546E6682068001D00F059FA38B9206839
:104D800090F82C1001208840216981432161681C22
:104D900007D137B12168BDE8F0410E48091D00F088
:104DA00089BA20683544B5424560216805D2A06BB8
:104DB000BDE8F041091D00F065BA606B091D00F007
:104DC00061FAA06A854200D2A562BDE8F0810000C8
:104DD00014000020C80500202DE9F041054600F030
:104DE00075FA2E4CA068401CA06020682C4F10B1B2
:104DF000606940B32DE02560A068012829D1002614
:104E000006EB860007EB800000F02EFA761C072EDA
:104E1000F6D323488C3000F027FA2148A03000F068
:104E200023FA1F48B43000F01FFA1D48C83000F0C4
:104E30001BFA1B48DC3000F017FA19488C3060630D
:104E40001430A06305E02068E96AC06A884200D88F
:104E50002560606A401C6062E96A0120226988401E
:104E60001043206101EB810007EB8000291D00F059
:104E700021FA00F04BFA606900280CD02068E96A3A
:104E8000C06A884207D207494FF080500860BFF3DC
:104E90004F8FBFF36F8FBDE8F0810000140000203A
:104EA000EC04002004ED00E010B5044690F8510039
:104EB00058B101280CD002280FD0502080F311885F
:104EC000BFF34F8FBFF36F8FFEE7206B00F032FA16
:104ED0002046BDE8104000F02DBA10BD10484FF438
:104EE0007051420706D0C01D0D4920F00700411A3D
:104EF000C1F570510B4A00230144C2E9000308398F
:104F0000183A21F0070111604B600B600B1AC0E9E1
:104F1000001393604FF000405360506170470000F1
:104F2000DC05002068000020144E154CA6F1C807CF
:104F30004FF08058DFF84C9012E000BF00F0C6F947
:104F4000F068C568281D00F072F9A068401EA060D6
:104F50006068401E606000F0D9F92846FFF7A4FFA2
:104F600060680028EAD138680128F9D9C9F80080BA
:104F7000BFF34F8FBFF36F8FF2E70000B40500203F
:104F80001400002004ED00E02DE9F0479A46DDE929
:104F9000098481466FF00303206B03EB8202104407
:104FA000089E20F00707780707D0502080F311886B
:104FB000BFF34F8FBFF36F8FFEE7002561B1002075
:104FC00023180A5C83F834200A5C12B1401C1028B4
:104FD000F6D384F8435001E084F83450072E00D310
:104FE0000626E662C4E91165201D00F048F904F1C7
:104FF000180000F044F92461C6F107006462A06162
:10500000E56484F8505052464946384600F0DAF8D4
:105010002060B8F1000F01D0C8F80040BDE8F0876B
:1050200030B5114900E011460A688242FBD34B6853
:105030005C18844203D140681844486008464368BD
:105040001C18944209D1084C183C2468A24209D08B
:1050500052681A4442600A6812680260814200D0B5
:10506000086030BD0460F9E7680000200648416B25
:10507000096829B1416BC968C9684968816270478C
:105080004FF0FF31FAE700001400002008484068A4
:10509000401C4FF0500080F3118804D0BFF34F8FB5
:1050A000BFF36F8FFEE7BFF34F8FBFF36F8FFEE746
:1050B0007000002000EE901A9FED091AF8EE600AC9
:1050C00060EE810AB7EE001AC1EE201AC0ED011A97
:1050D00080ED020A9FED030A80ED000A7047000090
:1050E000DB0FC940000000002DE9F0410546002714
:1050F00000F0C0F9324E306808B9FFF7EFFE706972
:1051000005424ED1C5B3083568070ED005F007003B
:10511000C0F108000544680707D0502080F31188CB
:10512000BFF34F8FBFF36F8FFEE72DB370688542DB
:1051300037D82348183001460C6801E020460C4659
:105140006168A94202D221680029F7D131688C42F6
:1051500027D007682168016060680837411B102963
:105160000FD96019420708D0502080F31188BFF38F
:105170004F8FBFF36F8FFEE713E041606560FFF76D
:105180004FFF61687068401A7060B268904200D248
:10519000B060706901430020C4E90001F068401C60
:1051A000F06000F0D5FA780707D0502080F311881E
:1051B000BFF34F8FBFF36F8FFEE73846BDE8F08136
:1051C0005000002010B5031F4FF080741C601B1F9F
:1051D00021F001011960191F044B0B6014390A609A
:1051E000091F6FF0020244380A6010BD8D5000089C
:1051F00010B500EE100A2DED028BB1EEC08A18EE4C
:10520000100A20F00040C0F1FF40C00F0AD010EE9D
:10521000100A20F00040C0F1FF40C00F04BF012081
:10522000FFF75CFB18EE100ABDEC028B10BDD0E955
:10523000013201699A60D0E901235A604A688242CA
:1052400001D182684A60002202610868401E08603D
:1052500008687047034B036003F154000860802026
:1052600010607047F801002000F108014FF0FF3294
:10527000C0E90112C1600161002101607047002195
:105280000161704730B50B685A1C02D000F108026A
:1052900002E0026904E02246546825689D42FAD97A
:1052A00053684B6099608A60516008610168491CCD
:1052B000016030BD42684A6093688B6093685960B2
:1052C000916008610168491C01607047502080F3BB
:1052D0001188BFF34F8FBFF36F8F0A494868401C96
:1052E000486001280CD10848006810F0FF0F07D073
:1052F000502080F31188BFF34F8FBFF36F8FFEE70D
:10530000704700007000002004ED00E00849486884
:1053100028B1401E486001D180F3118870475020A9
:1053200080F31188BFF34F8FBFF36F8FFEE700004C
:105330007000002070B500282AD0164DA0F1080496
:1053400060686969084207D1502080F31188BFF373
:105350004F8FBFF36F8FFEE722683AB1502080F382
:105360001188BFF34F8FBFF36F8FFEE788436060F4
:1053700000F080F860686968084468602046FFF7BC
:105380004FFE2869401C2861BDE8704000F0E0B97C
:1053900070BD0000500000204FF0E02000210161AE
:1053A000816105494FF47A720968B1FBF2F1491E37
:1053B00041610721016170471000002010B5020013
:1053C00014D00F48006B38B1502080F31188BFF320
:1053D0004F8FBFF36F8FFEE700F04CF800211046AF
:1053E000FFF7C2FC00F0B4F9002807D105494FF0DF
:1053F00080500860BFF34F8FBFF36F8F10BD000068
:105400001400002004ED00E010B586B000240394E1
:1054100005AA04A903A80494FFF71CFFDDE9030112
:105420000094CDE9011000230EA11048059A00F068
:10543000FEF80F490028C86211D0502080F311886F
:10544000BFF34F8FBFF36F8F4FF0FF3088620120A3
:105450004861CC6006B0BDE8104000F041B806B02D
:1054600010BD000049444C4500000000294F0008D1
:10547000140000200248016B491C016370470000C2
:10548000140000201448016B11B10121C161704763
:105490000021C1610169B1FA81F1C1F11F0101EB84
:1054A00081020E4951F822306BB101EB820101F10A
:1054B00008034A6852684A609A4201D152684A60B9
:1054C000D16801607047502080F31188BFF34F8F7F
:1054D000BFF36F8FFEE7000014000020EC040020F3
:1054E0001CB537480168374A914207D1502080F3F4
:1054F0001188BFF34F8FBFF36F8FFEE7006831490C
:10550000491E884207D1502080F31188BFF34F8F86
:10551000BFF36F8FFEE72C4908780190FF200870D9
:1055200008788DF800009DF800009DF8002000F03C
:10553000F000904207D0502080F31188BFF34F8FC6
:10554000BFF36F8FFEE79DF80000204C00F0500085
:1055500020700720A06005E09DF8002052008DF823
:105560000020401E9DF800201206F5D4A0600328FC
:1055700007D0502080F31188BFF34F8FBFF36F8F98
:10558000FEE74FF44070A060019808700C4820308E
:10559000016841F470010160016841F070410160EF
:1055A000FFF7FAFE00206060FAF71CFE0848016869
:1055B00041F040410160FAF701FE00201CBD0000EF
:1055C00000ED00E071C20F4100E400E07000002037
:1055D00034EF00E02DE9FF5F8346DDE90E87994651
:1055E00016468A469000FFF77FFD05001CD0542028
:1055F000FFF77AFD040014D00020256384F85100E1
:10560000CDE90240CDE900874B4632465146584627
:10561000FFF7BAFC2046FFF7DFFB012004B0BDE82E
:10562000F09F2846FFF786FE4FF0FF30F6E7F0B513
:1056300085B0DDE90B640A9DA6B1DCB15427009763
:105640002663022684F85160002604AFCDE90246A5
:10565000CDE90057FFF798FC2046FFF7BDFB049803
:1056600005B0F0BD502080F31188BFF34F8FBFF31A
:105670006F8FFEE7502080F31188BFF34F8FBFF389
:105680006F8FFEE72DE9F0412F4C0026206B28B1EB
:10569000A069401CA0613046BDE8F081E5686D1C42
:1056A000E56013D1606B006838B1502080F3118839
:1056B000BFF34F8FBFF36F8FFEE7606BA16B61632A
:1056C000A063206A401C2062FFF7D0FCA06ADFF8CC
:1056D0007C80854209D3606B0068A0B1606BC068B4
:1056E000C7687868854211D2A0622068C06A00EB62
:1056F000800158F82100012800D90126E06900281E
:10570000C9D00126C7E74FF0FF30EDE7381DFFF79E
:105710008EFDB86A18B107F11800FFF788FDF96A25
:105720000120226988401043206101EB810108EBD0
:105730008100391DFFF7BEFDF86A2168C96A8842F9
:10574000C9D30126C7E7000014000020EC040020A4
:105750002DE9F0472C4D00242746286B38B1FFF780
:10576000B5FD286B401E2863286B40B146E05020F1
:1057700080F31188BFF34F8FBFF36F8FFEE7A968E7
:10578000224E0120D1B3A6F1B40980463068E8B1B9
:10579000F068C46804F11800FFF749FD201DFFF709
:1057A00046FDE06A2A6908FA00F11143296100EB1D
:1057B000800109EB8100211DFFF77CFDE06A29686B
:1057C000C96A8842E2D3C5F81C80DFE70CB1FFF755
:1057D0004DFCAC6944B14646FFF754FF00B1EE61A1
:1057E000641EF9D10020A861E86938B10849012791
:1057F00038070860BFF34F8FBFF36F8FFFF786FD49
:105800003846BDE8F087000014000020A005002005
:1058100004ED00E028590008F549000800000000E8
:1058200000000000800000000000000000000000F8
:105830000000000000000000010203040607080940
:1058400000000000010203040000803F000000008F
:1058500000000000000000000000803F0000000089
:1058600000000000000000000000803F0000000079
:1058700000000000C3F51C410000803F0000000054
:105880000000000000000000000000000000000018
:10589000000000000000803F000000000000000049
:1058A00000000000000000000000000000000000F8
:1058B0000000803F00000000000000000000000029
:1058C0000000000000000000000000000000803F19
:1058D00000000000000000000000000000000000C8
:1058E00000000000000000000000803F00000000F9
:1058F00000000000000000000000000000000000A8
:10590000000000000000803F000000006E83F9A24C
:105910002915444ED15727FCC0DD34F5999562DB3B
:105920004190433CAB6351FE424D49303838000052
:105930005059000800000020F8010000FC05000894
:10594000AC590008F8010020A8830000CC480008EA
:105950004132018210036124F41AAA0171197B43B8
:1059600070170009103333EB3A58A08B3A157D04B9
:10597000017C100F0240AB03410105530806580497
:10598000070F160810820911160A15800B160599C3
:105990000C18010D08081250C347CDCCCC3D0409AA
:0C59A000531C110B1AC8421CC10000006F
:040000050800018965
:00000001FF
